:100000006CEF00F00000000000EF00F000000000C6
:0A0010000000000000000000F3D71C
:0E001C00ACB202D00000FCD73FC0ADFF120016
:0E002A000A0E3F6EF6DF0D0E3F6EF3DF120082
:0A003800000E9EBA010E006E1200C9
:100042003E6A3BC0E9FF3CC0EAFFEECF3DF03D50C7
:10005200000A0DE03DC03FF0E0DF3E2A3E503B2467
:10006200E96E000E3C20EA6EEECF3DF0F0D71200B2
:100072000900F5CFE6FF0006FBE10106F9E11200F7
:100082001C0E376E000E386E3F0E396E000E3A6E41
:10009200FF0E2B6EFF0E2C6E000E2D6E000E2E6EBE
:1000A200380E2F6E000E306E000E316E000E326E64
:1000B200FF0E336EFF0E346E000E356E000E366E7E
:1000C200AC8A900EAB6E948E949C9EAA03D0AECF57
:0600D20000F0FBD7120054
:1000D8008FEC00F0B886B06ACF0EAF6EAC84CDDF7F
:1000E8001F0E3B6E000E3C6EA8DF9BDFA1DF0052A7
:1000F80005E0150E3B6E000E3C6E9FDFF7D7FFD76D
:10011E0010EE15F0160E006E010E016E080EF66E44
:0E012E00010EF76E000EF86E39EC00F01200B4
:0A010800D6E5EBF3E920F5F3E9007A
:0C0112004D4355207374617274656400E5
:020000040030CA
:0D000100231F3CFFBF81FF0FC00FE00F4029
:00000001FF
