:100000008AEF01F00000000000EF00F000000000A7
:0A0010000000000000000000F3D71C
:10001C007EC0E9FF7FC0EAFFEE500001801905E1C8
:10002C007EC000F07FC001F010D07EC000F07FC019
:10003C0001F07E4B7F2B00C0E9FF01C0EAFFEECF41
:0C004C0000F00052E5E1006A016A1200B9
:1000580082C000F000018207005228E07EC0E9FF5C
:100068007FC0EAFFEE50000A0CE07EC0E9FF7FC0C7
:10007800EAFF80C0D9FF81C0DAFFEE50DE1801E147
:100088000FD07EC0E9FF7FC0EAFF80C0D9FF81C0E2
:10009800DAFFDE50EE5C006E016A000E015A08D0ED
:1000A80000017E4B7F2B804B812BD2D7006A016ADF
:0200B800120034
:1000BA007EC002F07FC003F002C000F003C001F06E
:1000CA00024A032A00C0E9FF01C0EAFFEE5201E03A
:1000DA00F3D700017E51025C006E7F510358016E16
:0A00EA00010E005E000E015A120024
:0E00F400ACB202D00000FCD77EC0ADFF1200FF
:1001020079C002F07AC003F07CC000F07DC001F03B
:10011200010E00017C5F000E7D5B0050011009E0C2
:1001220002C0E1FF03C0E2FF7BC0E6FF024A032AEE
:0C013200EBD779C000F07AC001F0120099
:10013E0000017C6B79C0E9FF7AC0EAFFEECF7BF05D
:10014E007B51000A0EE07BC07EF0CDDF00017C2BE0
:10015E007C517925E96E000E7A21EA6EEECF7BF0A6
:04016E00EFD71200B5
:10017200000E00017A1902E1000E791934E079C00B
:10018200E9FF7AC0EAFFEE522EE07BC07EF07CC02F
:100192007FF092DF00C082F079C07EF07AC07FF0FB
:1001A2007BC080F07CC081F056DF000E011802E1B6
:1001B200000E001805E179C000F07AC001F015D0F8
:1001C200010E000179257E6F000E7A217F6F7BC0C0
:1001D200E9FF7CC0EAFFEECF80F01FDF00C079F0BC
:0C01E20001C07AF0C5D7006A016A120063
:1001EE00F40E0001696F000E6A6F7E0E6B6F000ECB
:1001FE006C6F020E6D6F030E6E6F000E6F6F000E42
:10020E00706F560E716F020E726F000E736F000ECE
:10021E00746FFF0E756FFF0E766F000E776F000E08
:10022E00786FAC8A900EAB6E948E949C9EAA03D07F
:08023E00AECF00F0FBD7120067
:100246000900F5CFE6FF0006FBE10106F9E1120021
:0A025600000E9EBA010E006E1200A9
:10026000320E0001796F000E7A6F1F0E7B6F000E49
:100270007C6F7FDF005001100EE0150E0001796FDA
:10028000000E7A6F5CDF0A0E7E6F34DF0D0E000108
:100290007E6F30DF28D0320E0001796F000E7A6F4A
:1002A0001A0E7B6F000E7C6F64DF005001100EE0B1
:1002B000540E0001796F000E7A6F41DF0A0E7E6FD7
:1002C00019DF0D0E00017E6F15DF0DD0590E0001F4
:1002D000796F000E7A6F33DF0A0E7E6F0BDF0D0E23
:1002E00000017E6F07DF526A536A320E0001796F98
:1002F000000E7A6F7B6B200E7C6F000E7D6F01DF2E
:020300001200E9
:10030200AECF01F0ABA202D0AB98AB8801C000F037
:020312001200D7
:10031400FCEC01F0B886B06ACF0EAF6EAC8465DF3A
:10032400250E796F000E7A6F08DF0A0E7E6FE0DE0D
:100334000D0E00017E6FDCDE8CDF00522FE0DFDF6C
:1003440000C031F00ED00A0E00017E6FD1DE0D0E1A
:1003540000017E6FCDDE82DF08D031C07EF0C8DEC2
:1003640004D031500D0AEFE0F8D7320E5224E16E7A
:10037400000E5320E26E31C0E6FF524A532A535016
:10038400000A02E11F0E521809E10A0E00017E6FF5
:10039400AFDE0D0E00017E6FABDE60DFCDD7FFD781
:1003F80010EE15F0540E006E010E016EA40EF66E8E
:0E040800030EF76E000EF86E23EC01F01200EA
:0503A40045484C4F002C
:0503A90074657374008F
:0603AE0068656C6C6F0035
:0C03B4004D435520737461727465640041
:0103C000003C
:1003C100000000000000000000000000000000002C
:1003D100000000000000000000000000000000001C
:0203E10000001A
:0503E3005453455400D5
:1003E800556E6B6E6F776E20636F6D6D616E640016
:020000040030CA
:0D000100231F3CFFBF81FF0FC00FE00F4029
:00000001FF
