:10000000D0EF00F0CEF8E8E1EAE02100046A0D6AE2
:100010000C6A9EBA23EF00F00C2AD8B40D2A0D50BA
:10002000C308D8A023EF00F0D8A41CEF00F00C50B8
:100030004F08D8A023EF00F00400060E006E002E3B
:10004000FED709EF00F09EAA2FEF00F09EAA26EF40
:1000500000F0AECF01F035EF00F035EF00F0010E0B
:10006000046E000E016E35EF00F076EF00F09EA8F2
:10007000FED7AD6E12000C502F0803E20C50390869
:1000800002E2000E01D0010E000A03E1FF0E016E34
:1000900017D00D502F0803E20D50390802E2000E70
:1000A00001D0010E000A03E1FF0E016E09D0300EEF
:1000B0000C5C0A0DF3CF0EF0300E0D5C0E24016EB9
:1000C00091EF00F00900F5520DE0F6CF0CF0F7CFFC
:1000D0000DF0F5509EA8FED7AD6E0CC0F6FF0DC01A
:1000E000F7FFF0D79BEF00F00B6A90D701C005F047
:1000F000042C01D02DD00550BADF0550680827E048
:100100009EAAFED7AECF06F0200EB1DF0550AFDFBE
:100110000650ADDF200EABDF05C00CF006C00DF0C1
:10012000AAD701C00BF00B50FF080EE1040EF66ECB
:10013000000EF76EC7D70D0E9EA8FED7AD6E0A0E45
:100140009EA8FED7AD6E04D00BC008F001D0076AA0
:10015000F5EF00F0EA6A0C0EE96EEF5011E0020EC6
:10016000016EBF0E006E0400002EFDD7012EF9D7E0
:10017000960E006E002EFED700D00400EF2EEFD7B3
:100180001200FE0E956E8C80030E0B6EC80E0C6E68
:10019000E1DF0B2EFBD7FE0E956E8C9005EF01F084
:1001A000F86AD09EB8960C0EAF6EA20EAC6E900E92
:1001B000AB6E046A056A066A076A050E086E0A6A6B
:1001C000096A0F01386B396B3A6B3B6B3C6B776A92
:1001D000786A796AFE0E956E8C909EAAFED7AE5014
:1001E000948E82AE03D000017FD70F01030E0B6EF9
:1001F000FA0E0C6E0001AEDF0B2E01D002D00F0103
:10020000F7D70750085C09E2BCD7076AF00E0B6EFF
:10021000FA0E0C6E9FDF0B2EFBD7072A0F01E0D7DB
:020220000300D9
:020000040030CA
:0E00000000E31E3C00BF81000FC00FE00F4068
:00000001FF
;PIC18F46K22
;CRC=E95F  CREATED="27-џэт-23 16:29"
